:03000000020417E0
:0C041700787FE4F6D8FD75814C02045E8D
:10002600202A0053657269616C20646562756720D9
:10003600656E61626C6564210A0D005365726961C3
:100046006C204465627567204F6E002D3E696E69AF
:1000560074537973282900202A202A202A202A204E
:100066002A202A202A2000696E6974537973282968
:100076002D3E0050617373776F7264206D69736DE6
:1000860061746368004B6579203020707265737304
:100096000A0D004B657920312070726573730A0D65
:1000A600004B657920322070726573730A0D004B20
:1000B600657920332070726573730A0D004B65797C
:1000C60020342070726573730A0D004B65792035F4
:1000D6002070726573730A0D004B657920362070A7
:1000E600726573730A0D004B65792037207072654F
:1000F60073730A0D004B657920382070726573732F
:100106000A0D004B657920392070726573730A0DEC
:10011600004B6579202A2070726573730A0D004BB7
:10012600657920232070726573730A0D00433420AD
:0A013600616374697665640A0D00C8
:10051F000118010136000C0A000000000000000065
:10052F00000000000C23000000000000000000008D
:10053F000000010800013700013800011700011900
:10054F0000071B37333535363038072F2A2A2A2A2A
:10055F002A2A2A011A000139000109000116000197
:02056F00220068
:1007F900A2AFE433FE30AF02C2AF8F993099FDC288
:0608090099EE24FF92AFFE
:01080F0022C6
:10083D00120798FF600C1207F9740129F9E43AFACE
:03084D0080EE2218
:0A070700D2B7C2B68FA0D2B57F02B0
:100711008F167537EA7538E785378C85388AD28C1C
:05072100E51670FC224A
:10000E008F167537277538FF85378C85388AD28CD1
:05001E00E51670FC2254
:1006C700AE07AD07EFD394004015EED39400400C6E
:0F06D700EDD3940040031D80F71E80EE1F80E5D9
:0106E60022F1
:02072600AE071C
:10072800E4F54BF54CEED3940040117F6412000EB3
:0C07380012000E12000E12000E1E80E9CE
:010744002292
:04068300AC07AA0511
:10068700C294ECD39400401379FFAF021206C7B2AD
:0D06970094AF031206C7D9F21C80E7D2947D
:0106A4002233
:1006E7008F3C8D3D8B3EE53CD394004012AB40AD33
:1006F7003FAF3D120683AF3E12000E153C80E72246
:1002E900C280209005750B018003E4F50B20910570
:1002F900750E018003E4F50E209205751101800346
:10030900E4F5112093057514018003E4F514D280F6
:100319007F01120711C281209005750C018003E449
:10032900F50C209105750F018003E4F50F20920566
:100339007512018003E4F512209305750A01800303
:10034900E4F50AD2817F01120711C2822090057556
:100359000D018003E4F50D2091057510018003E47A
:10036900F5102092057513018003E4F51320930518
:0F0379007515018003E4F515D2827F010207118B
:0F089A00753F157540017B017D047F020206E763
:0E08A900BF0103E4F522C2B7120709C2B5224F
:0608C400120707C2B52275
:10087600120707C2B51522E522B408057F871208BC
:02088600A922A5
:10088800120707C2B50522E522B408057FC0120881
:02089800A92293
:1007B1007F041208A9120798FF600C1208767401D1
:0807C10029F9E43AFA80EE2266
:10074500AE057F041208A9120798FF6011120876FA
:0F075500AF0612000E740129F9E43AFA80E92286
:10085000120798FF600C1208C4740129F9E43AFAEF
:0308600080EE2205
:1007C9007F061208A9120798FF600C1208887401A5
:0807D90029F9E43AFA80EE224E
:1005F800AE1A7F061208A97F801208A9E4F522C363
:1006080074079E600C7BFF7A0079261207C90E805A
:10061800EEE4FEEEC3951A50117F20120888742F5D
:0A0628002EF8E6FF1208880E80E9A4
:0106320022A5
:10082700C2977F381208A97F0C1208A97F06120801
:06083700A97F010208A9DF
:100764007580F87590FFE4F5A075B017758921D2EE
:0B077400AFD288D2A912089A02082711
:0200060080FE7A
:10063300750801758780C29FD29ED29C758DFD750A
:100643008BFDD28E7BFF7A00792912083D7A0079DF
:0C065300411207C97FC812000ED2AC2271
:0D08B700308703120006308603120633223C
:10057200C2A8E50860097BFF7A00795112083D7F25
:10058200011208A9750964E4F539F51AF522F53660
:1005920075220F7FC61208A97BFF7A00795D7D0262
:1005A20012074575220F7FC61208A9E50860077A6F
:0905B20000796D12083DD2A82267
:10077F007F6412000E753F137540017B067D017F6C
:09078F000B1206E7C2B402057268
:1005BB007549037F6412000EE50860097BFF7A0022
:1005CB00797912083DE54960217F081208A97F0F50
:1005DB0012000E7F0C1208A97F0F12000E7B017DFB
:0D05EB001D7F04120683154980DB02057296
:1006A500E51A6014241AF8E6FF742E251AF8E6B543
:1006B50007020539151A80E8E53964076003120554
:0206C500BB2256
:10081000742F251AF8A607051A1205F8E51AC394CD
:070820000740031206A522A8
:10014000EFB40C00400302023A900150F8282873E3
:100150000201740201860201980201A90201BA0299
:1001600001CB0201DC0201ED0201FE02020F0202DC
:100170002102022DE50860097BFF7A00798B1208C5
:100180003D7F3002021EE50860097BFF7A00799905
:1001900012083D7F3102021EE50860097BFF7A00EC
:1001A00079A712083D7F328075E50860097BFF7AE8
:1001B0000079B512083D7F338064E50860097BFF54
:1001C0007A0079C312083D7F348053E50860097BCB
:1001D000FF7A0079D112083D7F358042E508600939
:1001E0007BFF7A0079DF12083D7F368031E50860B9
:1001F000097BFF7A0079ED12083D7F378020E50802
:1002000060097BFF7A0079FB12083D7F38800FE59B
:100210000860097BFF7A01790912083D7F390208DD
:1002200010E50860157BFF7A017917800AE5086000
:0B023000097BFF7A01792512083D22AE
:10023B00E4F548E50A6008E5237004FF0202CCE50B
:10024B000B6008E52470047F018076E50C6008E5FF
:10025B002570047F02806AE50D6008E52670047F37
:10026B0003805EE50E6008E52770047F048052E58D
:10027B000F6008E52870047F058046E5106008E5EF
:10028B002970047F06803AE5116008E52A70047F27
:10029B0007802EE5126008E52B70047F088022E5AD
:1002AB00136008E52C70047F098016E5146008E5DF
:1002BB002D70047F0A800AE5156009E52E70057F15
:1002CB000B120140E548C3940C5012740A2548F8F0
:0D02DB00E6FF74232548F8A607054880E7D4
:0102E80022F3
:1004A300A2A8E433753A00F53B30A802C2A8750947
:1004B300647536017F6412000EE50860097BFF7ADC
:1004C30001793312083D7F011208A97BFF7A007975
:1004D3005D1207C9E536603BC2957B017D147F033E
:1004E3001206837F0112000ED29512023BAF09124E
:1004F300000EE509C39434400415091509E509C341
:1005030094345006E50960021509E50970C612071F
:0B0513007F80C1E53A453B24FF92A821
:01051E0022BA
:1007E1001207641208B7120572E518600AE539B4F8
:0807F10007F71204A380F222B5
:030003000203886D
:10038800C0E0C083C082C0D075D000C000C001C02A
:0B03980002C003C004C005C006C0077F
:1003A300A2B9E433F541A28CE433F54285374385A2
:1003B3003844858C45858A46851647308C02C28C25
:1003C30020B902D2B9D280D281D2827F0112071121
:1003D3001202E9E536700312023BC280C281C28277
:1003E300E54124FF92B9854716854337854438850F
:0B03F300458C85468AE54224FF928C71
:1003FE00D007D006D005D004D003D002D001D00053
:09040E00D0D0D082D083D0E032BE
:03000B0002086385
:10086300C0E0151685378C85388AE5167002C28C70
:03087300D0E032A0
:0300230002065F73
:09065F00C0E0C0D075D000C00756
:10066800A2AFE433FF85994A30AF02C2AFEF24FF4F
:0406780092AFC298E3
:07067C00D007D0D0D0E0321E
:100423000207E1E493A3F8E493A34003F68001F207
:1004330008DFF48029E493A3F85407240CC8C333DA
:10044300C4540F4420C8834004F456800146F6DFA9
:10045300E4800B010204081020408090051FE47E15
:10046300019360BCA3FF543F30E509541FFEE4939E
:10047300A360010ECF54C025E060A840B8E493A365
:10048300FAE493A3F8E493A3C8C582C8CAC583CA90
:10049300F0A3C8C582C8CAC583CADFE9DEE780BE48
:010571000089
:10079800BB010689828A83E0225002E722BBFE025F
:0907A800E32289828A83E4932292
:00000001FF
